:100000000C942A000C9447000C9447000C94470071
:100010000C9447000C9447000C9447000C94470044
:100020000C9447000C9447000C94B40A0C944700BD
:100030000C9447000C9447000C9447000C94470024
:100040000C9447000C9447000C9447000C94470014
:100050000C94470011241FBECFE5D8E0DEBFCDBF12
:1000600012E0A0E6B0E0EAEBFAE102C005900D92E2
:10007000A438B107D9F712E0A4E8B2E001C01D929C
:10008000A738B107E1F70E94F7040C945B0D0C94BC
:100090000000843409F471C0853448F4823499F145
:1000A000833408F04DC0813409F083C00FC082361C
:1000B00051F1833620F4813609F07BC007C08336C6
:1000C00009F43EC0843609F074C057C0413069F469
:1000D0002AB381E090E0AC0102C0440F551F6A953D
:1000E000E2F7BA01622B6ABB08952AB381E090E07F
:1000F000AC0102C0440F551F6A95E2F7BA01609542
:1001000062236ABB0895413069F427B381E090E02F
:10011000AC0102C0440F551F6A95E2F7BA01622B89
:1001200067BB089527B381E090E0AC0102C0440FA3
:10013000551F6A95E2F7BA016095622367BB08957F
:10014000413069F424B381E090E0AC0102C0440F77
:10015000551F6A95E2F7BA01622B64BB089524B378
:1001600081E090E0AC0102C0440F551F6A95E2F7B0
:10017000BA016095622364BB0895413069F421B3EC
:1001800081E090E0AC0102C0440F551F6A95E2F790
:10019000BA01622B61BB089521B381E090E0AC010C
:1001A00002C0440F551F6A95E2F7BA0160956223B9
:1001B00061BB0895843409F471C0853448F48234F5
:1001C00099F1833408F04DC0813409F083C00FC029
:1001D000823651F1833620F4813609F07BC007C0A6
:1001E000833609F43EC0843609F074C057C04130EC
:1001F00069F42BB381E090E0AC0102C0440F551FBD
:100200006A95E2F7BA01622B6BBB08952BB381E0CC
:1002100090E0AC0102C0440F551F6A95E2F7BA01A5
:10022000609562236BBB0895413069F428B381E087
:1002300090E0AC0102C0440F551F6A95E2F7BA0185
:10024000622B68BB089528B381E090E0AC0102C046
:10025000440F551F6A95E2F7BA016095622368BBA7
:100260000895413069F425B381E090E0AC0102C00B
:10027000440F551F6A95E2F7BA01622B65BB0895DA
:1002800025B381E090E0AC0102C0440F551F6A9590
:10029000E2F7BA016095622365BB0895413069F4C5
:1002A00022B381E090E0AC0102C0440F551F6A9573
:1002B000E2F7BA01622B62BB089522B381E090E0BD
:1002C000AC0102C0440F551F6A95E2F7BA01609570
:1002D000622362BB0895843409F43DC0853440F440
:1002E0008234F9F0833450F5813409F040C00CC0F9
:1002F0008236B9F0833618F48136C9F505C08336E5
:10030000E9F08436A1F527C02BB381E090E0AC0181
:1003100002C0440F551F6A95E2F7BA0162276BBB12
:10032000089528B381E090E0AC0102C0440F551F4E
:100330006A95E2F7BA01622768BB089525B381E0A8
:1003400090E0AC0102C0440F551F6A95E2F7BA0174
:10035000622765BB089522B381E090E0AC0102C042
:10036000440F551F6A95E2F7BA01622762BB0895F0
:10037000843409F44EC0853440F4823431F183343E
:10038000B0F5813409F057C00EC08236F1F08336E3
:1003900020F4813609F04FC006C0833641F184361F
:1003A00009F049C036C029B381E090E0062E02C0B2
:1003B000880F991F0A94E2F730E08223932302C04A
:1003C000969587956A95E2F7089526B381E090E0C7
:1003D000062E02C0880F991F0A94E2F730E08223AC
:1003E000932302C0969587956A95E2F7089523B303
:1003F00081E090E0062E02C0880F991F0A94E2F770
:1004000030E08223932302C0969587956A95E2F7A0
:10041000089520B381E090E0062E02C0880F991F56
:100420000A94E2F730E08223932302C096958795E1
:100430006A95E2F7089580E008958434D9F0853410
:1004400038F4823499F0833498F48134A1F40CC0E8
:10045000823661F0833618F4813669F405C083363C
:1004600039F0843641F406C06ABB089567BB08952D
:1004700064BB089561BB08958434D9F0853438F4A1
:10048000823499F0833498F48134A1F40CC082361C
:1004900061F0833618F4813669F405C0833639F08B
:1004A000843641F406C06BBB089568BB089565BBF4
:1004B000089562BB08956F70823481F0833418F41C
:1004C0008134F1F405C0833479F08434C9F412C066
:1004D0008BB3807F8BBB8BB3862B8BBB88B3807F2A
:1004E00088BB88B3862B88BB85B3807F85BB85B3EB
:1004F000862B85BB82B3807F82BB82B3682B62BBB5
:1005000008956295607F823481F0833418F48134D9
:10051000F1F405C0833479F08434C9F412C08BB38C
:100520008F708BBB8BB3862B8BBB88B38F7088BBD4
:1005300088B3862B88BB85B38F7085BB85B3862B2C
:1005400085BB82B38F7082BB82B3682B62BB089578
:10055000843409F471C0853448F4823499F18334C9
:1005600008F04DC0813409F083C00FC0823651F1CC
:10057000833620F4813609F07BC007C0833609F446
:100580003EC0843609F074C057C0413069F42BB3C3
:1005900081E090E0AC0102C0440F551F6A95E2F77C
:1005A000BA01622B6BBB08952BB381E090E0AC01E4
:1005B00002C0440F551F6A95E2F7BA0160956223A5
:1005C0006BBB0895413069F428B381E090E0AC0141
:1005D00002C0440F551F6A95E2F7BA01622B68BB4F
:1005E000089528B381E090E0AC0102C0440F551F8C
:1005F0006A95E2F7BA016095622368BB08954130BD
:1006000069F425B381E090E0AC0102C0440F551FAE
:100610006A95E2F7BA01622B65BB089525B381E0C4
:1006200090E0AC0102C0440F551F6A95E2F7BA0191
:100630006095622365BB0895413069F422B381E07F
:1006400090E0AC0102C0440F551F6A95E2F7BA0171
:10065000622B62BB089522B381E090E0AC0102C03E
:10066000440F551F6A95E2F7BA016095622362BB99
:100670000895E199FECF8EBB892F990F990B8FBBFF
:10068000E09A6DBBE29AE19A0895E199FECF8EBBA4
:10069000892F990F990B8FBBE09A8DB30895DC01D8
:1006A00014161506C4F4E62FF72F20E030E0E19988
:1006B000FECFC9018A0F9B1F9FBB8EBBE09A9DB3E3
:1006C0008191981719F08DBBE29AE19A2F5F3F4F05
:1006D0002417350761F70895DC01E199FECF141660
:1006E00015068CF4E62FF72F20E030E0C9018A0FC1
:1006F0009B1F9FBB8EBBE09A8DB381932F5F3F4FB3
:100700002417350799F70895CF93C82F6FE00E94FB
:100710001D028C2F64E041E00E94A8028C2F65E04E
:1007200041E00E94A8028C2F66E041E00E94A802EE
:100730008C2F67E041E00E94A802CF910895FF92BC
:100740000F931F93CF93DF93CDB7DEB760970FB6AC
:10075000F894DEBF0FBECDBF082FDE011196E0E694
:10076000F0E080E101900D928150E1F7FF24802FAD
:1007700060E041E00E94DA00802F61E041E00E94E9
:10078000DA00802F62E041E00E94DA00802F63E00F
:1007900041E00E94DA00802F6F2D40E00E94DA00D5
:1007A00010E0612F6C5F802F0E94B801882361F4F4
:1007B000EF2DF0E0EE0FFF1FEE0FFF1FE10FF11D19
:1007C000EC0FFD1F818104C01F5F143051F70CC076
:1007D00060960FB6F894DEBF0FBECDBFDF91CF910C
:1007E0001F910F91FF900895F39484E0F81609F09B
:1007F000BECF8FEFEDCF81E460E041E00E94DA00F0
:100800008FE99FE00197F1F700C0000081E460E00C
:1008100040E00E94DA008FE99FE00197F1F700C005
:1008200000000895CF93DF93D82FC62F62956F7085
:100830000E94810281E462E041E00E94DA000E94AD
:10084000FB038D2F6C2F0E94810281E462E041E066
:100850000E94DA000E94FB038FEC97E00197F1F70A
:1008600000C00000DF91CF910895CF93DF93D82F80
:10087000C62F62956F700E94810281E462E040E0C1
:100880000E94DA000E94FB038D2F6C2F0E948102D0
:1008900081E462E040E00E94DA000E94FB038FECFA
:1008A00097E00197F1F700C00000DF91CF91089524
:1008B000CF93C82F8FEF91EEA4E081509040A040DD
:1008C000E1F700C000008C2F64E041E00E94490085
:1008D0008C2F65E041E00E9449008C2F66E041E0EA
:1008E0000E9449008C2F67E041E00E94490081E4AA
:1008F00060E041E00E94490081E461E041E00E9443
:10090000490081E462E041E00E94490081E461E045
:1009100040E00E94DA008C2F62E00E943504AFE1D3
:10092000BEE41197F1F700C000008C2F68E20E942E
:1009300035048FEC97E00197F1F700C000008C2F91
:100940006EE00E943504AFECB7E01197F1F700C0FC
:1009500000008C2F61E00E9435048FE19EE4019736
:10096000F1F700C000008C2F66E00E943504AFEC68
:10097000B7E01197F1F700C00000CF9108951F93E1
:10098000CF93DF93182FEB016881662339F021960E
:10099000812F0E94120469916623D1F7DF91CF91D4
:1009A0001F910895962F9150923040F4613019F4C0
:1009B000642F615804C0642F615401C060E80E9434
:1009C00035048FEC97E00197F1F700C0000008951F
:1009D00041E00E944900089541E00E94DA00089534
:1009E00040E00E94DA0008950E946B010895CF93C1
:1009F000DF93CDB7DEB729970FB6F894DEBF0FBEF1
:100A0000CDBF81E40E94580484E40E94840383E4FF
:100A100060E00E94E80483E461E00E94E80483E46B
:100A200062E00E94E8040E94340C81E460E770E018
:100A30000E94BF0481E462E041E00E94D20481E4AC
:100A400061E870E00E94BF048FEF9EE9A4E281504C
:100A50009040A040E1F700C0000081E461E00E9406
:100A6000350480E091E00E944503813039F481E053
:100A700091E00E944503813009F4E7C081E46DE80C
:100A800070E00E94BF0481E462E041E00E94D20471
:100A900081E467E970E00E94BF048FEF9EE9A4E261
:100AA00081509040A040E1F700C0000081E461E087
:100AB0000E94350481E462EA70E00E94BF0481E490
:100AC00062E041E00E94D2048FEF8D838E838F839A
:100AD00088878E010B5F1F4FEE2484E40E949F03E2
:100AE000682F8F3FD1F3D8018D938D0181E40E944F
:100AF00012048FEF92E5A7E081509040A040E1F70B
:100B000000C00000E39481E462E04E2D0E94D20414
:100B100081E46AE20E9412048FEF91EEA4E081501A
:100B20009040A040E1F700C0000094E0E916A9F66B
:100B300082E091E0BE016B5F7F4F44E050E00E9495
:100B40004F0380E091E061E00E94390381E461E0BD
:100B50000E94350481E462EB70E00E94BF048FEFD5
:100B600099E6A8E181509040A040E1F700C0000064
:100B700081E461E00E94350481E461EC70E00E9450
:100B8000BF0481E462E041E00E94D2048FEF8983D8
:100B90008A838B838C838E010F5F1F4FEE2484E446
:100BA0000E949F03682F8F3FD1F3D8018D938D0151
:100BB00081E40E9412048FEF92E5A7E081509040FB
:100BC000A040E1F700C00000E39481E462E04E2D14
:100BD0000E94D20481E46AE20E9412048FEF91EE37
:100BE000A4E081509040A040E1F700C0000094E0F4
:100BF000E916A9F686E091E0BE016F5F7F4F44E001
:100C000050E00E944F0381E091E061E00E943903CF
:100C100081E461E00E94350481E462EB70E00E94AF
:100C2000BF048FEF99E6A8E181509040A040E1F722
:100C300000C0000081E461E00E9435048AE091E098
:100C400060E00E943903198605C08AE091E00E94A5
:100C500045038987EE240F2EF0E32F2EF1E03F2E7F
:100C6000F02D0F2EFBE3AF2EF1E0BF2EF02D0F2E57
:100C7000FBE58F2EF1E09F2EF02D0F2EF6E66F2E66
:100C8000F1E07F2EF02D80918402813059F50E9491
:100C9000C60C10928602109285021092840283E4A0
:100CA00061E00E94F00483E460E00E94F00481E4CB
:100CB00061E00E94350481E461ED70E00E94BF04B0
:100CC0008FEF99E6A8E181509040A040E1F700C085
:100CD0000000EE2400E00F2EF2E74F2EF1E05F2E31
:100CE000F02D04C0EE20B1F30CC2EE2499859130B2
:100CF00061F581E461E00E94350481E461EE70E019
:100D00000E94BF0481E462E041E00E94D20481E4D9
:100D10006FEE70E00E94BF0483E462E00E94EC0486
:100D20008AEA96EEA6E9B1E081509040A040B0403A
:100D3000D9F7000083E462E00E94F0048AE091E0C9
:100D400060E00E94390300E0198681E461E00E94BE
:100D5000350481E46FEF70E00E94BF0481E462E03B
:100D600041E00E94D20481E46BE071E00E94BF0484
:100D700081E462E04AE00E94D20481E463E171E030
:100D80000E94BF0484E40E949F03182F8F3FD1F379
:100D90008153823028F181E461E00E94350481E4CE
:100DA000612F0E94120481E46BE171E00E94BF0494
:100DB00081E462E041E00E94D20481E466E271E0F5
:100DC0000E94BF048FEF93EDA0E381509040A040BC
:100DD000E1F700C0000081E461E00E9435048EC1AB
:100DE00081E461E00E9435048FEF89838A838B83DD
:100DF0008C838D838E838F838887113341F01233E8
:100E000009F07CC192E0E91609F0BEC07AC1A1E008
:100E1000EA1609F476C182E3D82ED01A0F2EFAE032
:100E2000CF2EF02D81E4B1010E94BF0481E462E085
:100E300041E00E94D20481E4B5010E94BF048FEF1B
:100E400091EEA4E081509040A040E1F700C0000086
:100E50007E010894E11CF11C1C2D84E40E949F0378
:100E6000682F8F3FD1F3D7018D937D0181E40E94DC
:100E700012048FEF92E5A7E081509040A040E1F787
:100E800000C0000081E462E0412F0E94D20481E4AE
:100E90006AE20E9412048FEF91EEA4E0815090402C
:100EA000A040E1F700C000001F5F1E30B1F682E0F5
:100EB00091E0BE016B5F7F4F44E050E00E946C0305
:100EC000CE010196BE016B5F7F4F44E00E94CB0ACA
:100ED000813069F581E461E00E94350481E465E4D4
:100EE00071E00E94BF0481E462E041E00E94D2040C
:100EF00081E460E571E00E94BF048FEF99E6A8E10C
:100F000081509040A040E1F700C0000083E460E021
:100F10000E94EC0482E060E074E04EE40E947D0CEC
:100F200081E461E00E943504EE24E394EAC00F5F9F
:100F300081E461E00E94350481E4B4010E94BF04B1
:100F400081E462E041E00E94D20481E4B3010E94A6
:100F5000BF0481E46D2D0E9412048FEF99E6A8E191
:100F600081509040A040E1F700C0000081E461E0C2
:100F70000E943504DA94033008F454CF8AE091E0FB
:100F800061E00E943903D3C282E3D82ED01A0F2E1B
:100F9000FAE0CF2EF02D81E4B2010E94BF0481E47B
:100FA00062E041E00E94D20481E4B5010E94BF04E6
:100FB0008FEF91EEA4E081509040A040E1F700C097
:100FC00000007E010894E11CF11C1C2D84E40E94A9
:100FD0009F03682F8F3FD1F3D7018D937D0181E46B
:100FE0000E9412048FEF92E5A7E081509040A0404C
:100FF000E1F700C0000081E462E0412F0E94D204CA
:1010000081E46AE20E9412048FEF91EEA4E0815025
:101010009040A040E1F700C000001F5F1E30B1F615
:1010200086E091E0BE016B5F7F4F44E050E00E949C
:101030006C03CE010196BE016B5F7F4F44E00E94BE
:10104000CB0A813071F581E461E00E94350481E4CE
:1010500065E471E00E94BF0481E462E041E00E9427
:10106000D20481E462E771E00E94BF048FEF93ED48
:10107000A0E381509040A040E1F700C0000083E46D
:1010800061E00E94EC0482E060E074E04CE40E94C5
:101090007D0C81E461E00E943504EE246894E1F85F
:1010A00030C00F5F81E461E00E94350481E4B40147
:1010B0000E94BF0481E462E041E00E94D20481E426
:1010C000B3010E94BF0481E46D2D0E9412048FEFD2
:1010D00099E6A8E181509040A040E1F700C00000EF
:1010E00081E461E00E943504DA94033008F453CFC0
:1010F0008AE091E061E00E94390319C2EE2009F410
:10110000F4CD01E00F2EF6EE4F2EF1E05F2EF02D24
:101110000F2EFFEACF2EF1E0DF2EF02D02C20530B8
:1011200009F433C1063070F4023009F48AC0033088
:1011300018F40130A1F71BC0033009F41AC10430C0
:1011400071F71DC1083009F4CFC0093030F4063002
:1011500009F421C1073019F728C1093009F42BC15E
:101160000A30E9F6882309F42CC108E0DAC18E2D93
:10117000E02E082F81E461E00E94350481E46DE7F0
:1011800071E00E94BF0481E462E041E00E94D20469
:10119000013031F481E46EE871E00E94BF0407C0C1
:1011A000023029F481E46EE971E00E94BF04802FCF
:1011B0000E94E70A182F8FEF90E7A2E0815090403D
:1011C000A040E1F700C00000113309F4B3C11233AD
:1011D00009F4B3C1133309F4B3C1143341F4023039
:1011E00009F4B1C1013029F4E02E02E09AC11F3F99
:1011F000F9F081E461E00E94350481E4B6010E94C7
:10120000BF0481E462E041E00E94D20481E46BEB20
:1012100071E00E94BF048FEF9EE9A4E281509040EC
:10122000A040E1F700C000001153143008F476C16B
:1012300080918402882309F49DCF802F0E2DE82E03
:1012400070C181E461E00E94350481E465EC71E0E5
:101250000E94BF0481E462E041E00E94D20481E484
:1012600065ED71E00E94BF048E2D0E94E70A182FE1
:101270008FEF90E7A2E081509040A040E1F700C0DE
:101280000000113309F462C1123309F461C1133350
:1012900009F460C1143309F45FC11F3FF9F081E420
:1012A00061E00E94350481E4B6010E94BF0481E43C
:1012B00062E041E00E94D20481E46BEB71E00E94A5
:1012C000BF048FEF9EE9A4E281509040A040E1F777
:1012D00000C000001153143008F423C1809184022F
:1012E000882309F4AECF1DC181E461E00E9435047A
:1012F00081E4B2010E94BF0481E462E041E00E9407
:10130000D20481E469EF71E00E94BF048E2D0E9437
:10131000E70A182F8FEF90E7A2E081509040A0409D
:10132000E1F700C00000113309F418C1123309F4C9
:1013300017C1103309F416C11F3FA9F081E461E021
:101340000E94350481E4B6010E94BF048FEF94E34C
:10135000ACE081509040A040E1F700C00000105385
:10136000133008F4DEC080918402882309F4BCCFD6
:10137000D8C083E06E2D0E940A0B01E0D2C084E049
:101380006E2D0E940A0B01E0CCC085E06E2D0E94FC
:101390000A0B01E0C6C086E06E2D0E940A0B92E0A7
:1013A000E91609F0B3C001E0BCC087E06E2D0E94D1
:1013B0000A0B02E0B6C089E06E2D0E940A0B08E01D
:1013C000B0C081E461E00E94350481E46AE072E02B
:1013D0000E94BF0481E46FED0E94120481E463E483
:1013E0000E94120481E461E04BE00E94D2048FEF7E
:1013F00091EEA4E081509040A040E1F700C00000D1
:101400008E2D0E94E70A682F8FE79AE1A6E08150AF
:101410009040A040E1F700C000008091840281303C
:1014200009F476C0162F10531A3090F081E461E071
:101430000E94350481E4B6010E94BF048FEF94E35B
:10144000ACE081509040A040E1F700C0000057C0E0
:1014500081E40E9412048E2D0E94E70A682F8FE714
:101460009AE1A6E081509040A040E1F700C0000062
:1014700080918402813009F44DC0062F00530A3058
:1014800090F081E461E00E94350481E4B6010E949D
:10149000BF048FEF94E3ACE081509040A040E1F7AF
:1014A00000C000002CC081E40E941204110F812FA3
:1014B000880F880F180F100F80E40E94600C8FEFC8
:1014C00091EEA4E081509040A040E1F700C0000000
:1014D000812F0E94600C81E461E00E94350481E468
:1014E00068E172E00E94BF048FEF94E3ACE08150AA
:1014F0009040A040E1F700C00000112369F4809102
:101500008402882309F45DCF08E00BC002E009C023
:1015100008E007C008E005C008E003C0802F0E2DDA
:10152000E82E80918402813009F4ADCBF8CD91E0B2
:101530009987DBCBE02E03E0F4CFE02E04E0F1CF7F
:10154000E02E05E0EECFE02E06E0EBCF06E0E9CF9F
:1015500007E0E7CF08E0E5CF01E0E3CF0AE0E1CF25
:1015600009E0DFCF02E0DDCF1F920F920FB60F929E
:1015700011248F939F93809185029091860201960A
:1015800090938602809385029F918F910F900FBE5A
:101590000F901F9018954423A1F0FC013081FB01AE
:1015A0002081321781F4DC011196319680E004C06D
:1015B0002D919191291749F48F5F8417C9F781E024
:1015C000089581E0089580E0089580E00895CF9324
:1015D000C82F80918502909186022BE0883B92076C
:1015E00014F0C13051F0809185029091860227E07D
:1015F000803D92073CF0C23029F481E08093840260
:101600008FEF06C084E490E00E949F038F3F09F3B0
:10161000CF9108953F924F925F926F927F928F92F7
:101620009F92AF92BF92CF92DF92EF92FF920F9371
:101630001F93CF93DF93D82F062FEE24FF2410E0C3
:101640000F2EF3E15F2EF02D0F2EF5E14F2EF02D32
:101650000F2EF4E13F2EF02D0F2EF3E6AF2EF2E029
:10166000BF2EF02D0F2EF0E68F2EF2E09F2EF02DE4
:101670000F2EF7E6CF2EF2E0DF2EF02D0F2EF8E73B
:101680006F2EF2E07F2EF02D81E490E061E070E0BB
:101690000E943504D53089F1D63030F4D33069F06A
:1016A000D43009F069C019C0D73009F446C0D7302A
:1016B000A0F1D93009F060C050C081E490E069E247
:1016C00072E00E94BF040F2EF1E3EF2EF02D0F2EDB
:1016D000F1E2FF2EF02D11E14FC081E490E062E3D2
:1016E00072E00E94BF040F2EF2E3EF2EF02D0F2EBA
:1016F000F2E2FF2EF02D12E13FC081E490E06BE3B7
:1017000072E00E94BF040F2EF3E3EF2EF02D0F2E98
:10171000F3E2FF2EF02D152D2FC081E490E064E45C
:1017200072E00E94BF040F2EF4E3EF2EF02D0F2E77
:10173000F4E2FF2EF02D132D1FC081E490E06DE444
:1017400072E00E94BF040F2EF5E3EF2EF02D0F2E56
:10175000F5E2FF2EF02D142D0FC081E490E063E53B
:1017600072E00E94BF040F2EF6E3EF2EF02D0F2E35
:10177000F6E2FF2EF02D16E1812F90E00E94600C22
:101780008FEF90E7A2E081509040A040E1F700C0C9
:1017900000008FEF90E00E94600C813031F481E412
:1017A00090E0B4010E94BF0405C081E490E0B5015F
:1017B0000E94BF0481E490E062E070E041E050E00C
:1017C0000E94D20481E490E0B6010E94BF04802F01
:1017D0000E94E70AC82F8FEF90E7A2E08150904067
:1017E000A040E1F700C00000C13329F48F2D90E044
:1017F0000E94600C27C0C23329F48E2D90E00E9415
:10180000600C20C0CF3FC9F0C033E1F081E490E02C
:1018100061E070E00E94350481E490E0B3010E9431
:10182000BF048FEF94E3ACE081509040A040E1F71B
:1018300000C00000C053C33028F080918402882388
:1018400009F422CFDF91CF911F910F91FF90EF907C
:10185000DF90CF90BF90AF909F908F907F906F90D0
:101860005F904F903F90089582E464E041E00E94D1
:10187000490082E465E041E00E94490082E467E0BB
:1018800041E00E9449006C9A689A6E9A82E464E092
:1018900041E00E94DA0008956E9A82E466E041E039
:1018A0000E9449000895CF93C82F82E464E040E08D
:1018B0000E94DA00CFB9779BFECF8FB1CF91089508
:1018C0008FB9779BFECF8FB10895CF93DF93EC0153
:1018D0008881882379F021960E94600C8FEF92E531
:1018E000A7E081509040A040E1F700C0000089913E
:1018F000882391F7DF91CF910895813059F081309D
:1019000028F0823059F08330A1F40DC083B78F7B6B
:1019100083BF0FC083B7806483BF0BC083B7886069
:1019200083BF4CBF06C083B7886083BF83B7806422
:1019300083BF60347105A1F06134710524F468300F
:101940007105F9F409C081E06030780781F084E026
:1019500060307807B1F40FC083B7826083BF11C0D5
:1019600083B7826083BF83B7816083BF0AC083B7B8
:10197000846083BF06C083B7846083BF83B7816000
:1019800083BF789489B7826089BF089583B78E7FBB
:1019900083BF83B78D7F83BF83B78B7F83BF08955A
:1019A000BB9A93B7986093BF93B7906493BF8CBF73
:1019B00060347105A1F06134710524F4683071055B
:1019C000F9F409C081E06030780781F084E060308C
:1019D0007807B1F40FC083B7826083BF11C083B7AB
:1019E000826083BF83B7816083BF0AC083B784608E
:1019F00083BF06C083B7846083BF83B7816083BF22
:101A0000442319F0413059F407C083B7806183BF84
:101A100083B7806283BF089583B7806283BF0895D0
:101A2000BB9A93B7906493BF8CBF60347105A1F0EB
:101A30006134710524F468307105F9F409C081E05E
:101A40006030780781F084E060307807B1F40FC02F
:101A500083B7826083BF11C083B7826083BF83B7BF
:101A6000816083BF0AC083B7846083BF06C083B729
:101A7000846083BF83B7816083BF442319F0413002
:101A800059F407C083B7806183BF83B7806283BF87
:101A9000089583B7806283BF089582B5886082BD50
:101AA00085B5846085BD85B5816085BD789489B72D
:0A1AB000806489BF0895F894FFCF09
:101ABA003738392F3435362A3132332D41303D2BE0
:101ACA0057656C636F6D6520746F20736D617274F6
:101ADA0000686F6D652073797374656D004C6F676C
:101AEA00696E20666F720066697273742074696D1C
:101AFA0065005365742041646D696E20706173736B
:101B0A003A0050617373776F72642053617665642B
:101B1A000053657420677565737420706173733A36
:101B2A000053657373696F6E2054696D656F7574C0
:101B3A00004C6F67696E20626C6F636B6564007737
:101B4A00616974203230207365636F6E6473005369
:101B5A00656C656374204D4F44450041444D494EC0
:101B6A003A310047554553543A320057524F4E477F
:101B7A00204D4F44450054525920414741494E0097
:101B8A0041444D494E204D4F44450050415353570F
:101B9A004F52443A00526967687420706173730047
:101BAA0041646D696E206D6F64650057726F6E6770
:101BBA002050617373005472696573206C65667492
:101BCA003A004755455354204D4F444500524F4F14
:101BDA004D313D312020524F4F4D323D3200524F50
:101BEA004F4D333D3320204D4F52453D3400524F27
:101BFA004F4D333D332020524F4F4D343D34005723
:101C0A00726F6E6720696E70757400547279206104
:101C1A006761696E00524F4F4D343D3120202020BC
:101C2A0054563D32004169722E436F6E643D332033
:101C3A005245543D3400313A5365742074656D70D1
:101C4A00657261747572652000323A436F6E747200
:101C5A006F6C2020303A52455400536574207465E5
:101C6A006D702E3A5F5F200054656D706572617405
:101C7A007572652053656E7400526F6F6D31205313
:101C8A003A00526F6F6D3220533A00526F6F6D33C4
:101C9A0020533A00526F6F6D3420533A0054562045
:101CAA00533A0041697220436F6E642E20533A0002
:101CBA004F4E004F464600312D4F6E20322D4F6653
:101CCA006620302D5245540057726F6E6720696E38
:041CDA0070757400AD
:00000001FF
