:100000000C945A000C9477000C9477000C947700B1
:100010000C9477000C9477000C9477000C94770084
:100020000C9477000C9477000C94AC040C9477003B
:100030000C9477000C9477000C9477000C94770064
:100040000C9477000C9477000C9477000C94770054
:100050000C947700E703FB030F0423044B043704DD
:10006000D603D603D603D603D603D603D603D603C8
:10007000D603D6035F04640469046E047E0473042B
:10008000D603D603D603D603D603D603D603D603A8
:10009000D603D603830488048D0492049E04970437
:1000A000D603D603D603D603D603D603D603D60388
:1000B000D603A30411241FBECFE5D8E0DEBFCDBF19
:1000C00010E0A0E6B0E0E0E0FFE002C005900D9295
:1000D000A236B107D9F710E0A2E6B0E001C01D9248
:1000E000A636B107E1F70E94B0030C947E070C948A
:1000F00000003E9A3F9A379A8330B1F0843028F45A
:10010000813071F0823070F409C0853091F0853013
:1001100070F0863089F08730A9F411C0389812C089
:10012000389A10C0399A0EC0389A399A0BC03A9A48
:1001300009C0389A3A9A06C0399A3A9A03C0389A4E
:10014000399A3A9A319A329A0895369A3699FECF68
:10015000369A84B195B120E0822B0895843409F455
:1001600071C0853448F4823499F1833408F04DC06D
:10017000813409F083C00FC0823651F1833620F4F8
:10018000813609F07BC007C0833609F43EC084364F
:1001900009F074C057C0413069F42AB381E090E09F
:1001A000AC0102C0440F551F6A95E2F7BA01622BF9
:1001B0006ABB08952AB381E090E0AC0102C0440F0D
:1001C000551F6A95E2F7BA01609562236ABB0895EC
:1001D000413069F427B381E090E0AC0102C0440FE4
:1001E000551F6A95E2F7BA01622B67BB089527B3E2
:1001F00081E090E0AC0102C0440F551F6A95E2F720
:10020000BA016095622367BB0895413069F424B355
:1002100081E090E0AC0102C0440F551F6A95E2F7FF
:10022000BA01622B64BB089524B381E090E0AC0175
:1002300002C0440F551F6A95E2F7BA016095622328
:1002400064BB0895413069F421B381E090E0AC01D2
:1002500002C0440F551F6A95E2F7BA01622B61BBD9
:10026000089521B381E090E0AC0102C0440F551F16
:100270006A95E2F7BA016095622361BB0895843400
:1002800009F471C0853448F4823499F1833408F05C
:100290004DC0813409F083C00FC0823651F18336DE
:1002A00020F4813609F07BC007C0833609F43EC0D4
:1002B000843609F074C057C0413069F42BB381E033
:1002C00090E0AC0102C0440F551F6A95E2F7BA01F5
:1002D000622B6BBB08952BB381E090E0AC0102C0B0
:1002E000440F551F6A95E2F7BA01609562236BBB14
:1002F0000895413069F428B381E090E0AC0102C078
:10030000440F551F6A95E2F7BA01622B68BB089546
:1003100028B381E090E0AC0102C0440F551F6A95FC
:10032000E2F7BA016095622368BB0895413069F431
:1003300025B381E090E0AC0102C0440F551F6A95DF
:10034000E2F7BA01622B65BB089525B381E090E026
:10035000AC0102C0440F551F6A95E2F7BA016095DF
:10036000622365BB0895413069F422B381E090E0D7
:10037000AC0102C0440F551F6A95E2F7BA01622B27
:1003800062BB089522B381E090E0AC0102C0440F4B
:10039000551F6A95E2F7BA016095622362BB089522
:1003A000843409F43DC0853440F48234F9F0833458
:1003B00050F5813409F040C00CC08236B9F0833664
:1003C00018F48136C9F505C08336E9F08436A1F505
:1003D00027C02BB381E090E0AC0102C0440F551F51
:1003E0006A95E2F7BA0162276BBB089528B381E0F2
:1003F00090E0AC0102C0440F551F6A95E2F7BA01C4
:10040000622768BB089525B381E090E0AC0102C08B
:10041000440F551F6A95E2F7BA01622765BB08953C
:1004200022B381E090E0AC0102C0440F551F6A95F1
:10043000E2F7BA01622762BB0895843409F44EC022
:10044000853440F4823431F18334B0F5813409F0DD
:1004500057C00EC08236F1F0833620F4813609F0A1
:100460004FC006C0833641F1843609F049C036C01A
:1004700029B381E090E0062E02C0880F991F0A94EC
:10048000E2F730E08223932302C0969587956A9520
:10049000E2F7089526B381E090E0062E02C0880FAF
:1004A000991F0A94E2F730E08223932302C09695C5
:1004B00087956A95E2F7089523B381E090E0062ED0
:1004C00002C0880F991F0A94E2F730E08223932339
:1004D00002C0969587956A95E2F7089520B381E06A
:1004E00090E0062E02C0880F991F0A94E2F730E0D0
:1004F0008223932302C0969587956A95E2F7089523
:1005000080E008958434D9F0853438F4823499F049
:10051000833498F48134A1F40CC0823661F08336C0
:1005200018F4813669F405C0833639F0843641F415
:1005300006C06ABB089567BB089564BB089561BB9C
:1005400008958434D9F0853438F4823499F08334B2
:1005500098F48134A1F40CC0823661F0833618F42B
:10056000813669F405C0833639F0843641F406C01B
:100570006BBB089568BB089565BB089562BB089581
:100580006F70823481F0833418F48134F1F405C043
:10059000833479F08434C9F412C08BB3807F8BBB71
:1005A0008BB3862B8BBB88B3807F88BB88B3862BAD
:1005B00088BB85B3807F85BB85B3862B85BB82B323
:1005C000807F82BB82B3682B62BB08956295607F97
:1005D000823481F0833418F48134F1F405C083341B
:1005E00079F08434C9F412C08BB38F708BBB8BB39A
:1005F000862B8BBB88B38F7088BB88B3862B88BB58
:1006000085B38F7085BB85B3862B85BB82B38F7016
:1006100082BB82B3682B62BB0895843409F471C035
:10062000853448F4823499F1833408F04DC0813424
:1006300009F083C00FC0823651F1833620F4813631
:1006400009F07BC007C0833609F43EC0843609F048
:1006500074C057C0413069F42BB381E090E0AC0125
:1006600002C0440F551F6A95E2F7BA01622B6BBBBB
:1006700008952BB381E090E0AC0102C0440F551FF8
:100680006A95E2F7BA01609562236BBB0895413029
:1006900069F428B381E090E0AC0102C0440F551F1B
:1006A0006A95E2F7BA01622B68BB089528B381E02E
:1006B00090E0AC0102C0440F551F6A95E2F7BA0101
:1006C0006095622368BB0895413069F425B381E0E9
:1006D00090E0AC0102C0440F551F6A95E2F7BA01E1
:1006E000622B65BB089525B381E090E0AC0102C0A8
:1006F000440F551F6A95E2F7BA016095622365BB06
:100700000895413069F422B381E090E0AC0102C069
:10071000440F551F6A95E2F7BA01622B62BB089538
:1007200022B381E090E0AC0102C0440F551F6A95EE
:10073000E2F7BA016095622362BB089541E00E942E
:10074000AE00089541E00E943F01089540E00E94FC
:100750003F0108950E94D00108950E941D0208954E
:100760000E944D0582E060E074E04EE40E947E0548
:1007700084E467E00E949E0384E466E00E949E0396
:1007800084E465E00E949E0384E464E00E949E038A
:1007900084E463E00E949E0384E462E00E949E037E
:1007A00080E00E947900CFEFD0E011E08FEF0E944F
:1007B000610590E0419780339105C0F7865D9F4FBA
:1007C000FC01EE0FFF1F0590F491E02D099484E4E5
:1007D00067E00E94AD03882339F084E467E00E945B
:1007E000AD03813021F402C0CD2F01C0C12F8C2F69
:1007F0000E946105DBCF84E466E00E94AD0388239C
:1008000039F084E466E00E94AD03813021F402C037
:10081000CD2F01C0C12F8C2F0E946105C7CF84E46A
:1008200065E00E94AD03882339F084E465E00E940E
:10083000AD03813021F402C0CD2F01C0C12F8C2F18
:100840000E946105B3CF84E464E00E94AD03882375
:1008500039F084E464E00E94AD03813021F402C0E9
:10086000CD2F01C0C12F8C2F0E9461059FCF84E442
:1008700062E00E94AD03882339F084E462E00E94C4
:10088000AD03813021F402C0CD2F01C0C12F8C2FC8
:100890000E9461058BCF84E463E00E94AD0388234E
:1008A00039F084E463E00E94AD03813021F402C09A
:1008B000CD2F01C0C12F8C2F0E94610577CF84E41A
:1008C00067E00E94A20372CF84E466E00E94A20364
:1008D0006DCF84E465E00E94A20368CF84E464E005
:1008E0000E94A20363CF82E060E074E04EE40E94C5
:1008F0007E0584E462E00E94A20358CF84E463E0B2
:100900000E94A20353CF84E467E00E94A6034ECF67
:1009100084E466E00E94A60349CF84E465E00E9477
:10092000A60344CF84E464E00E94A6033FCF0E9464
:10093000C70584E462E00E94A60338CF84E463E044
:100940000E94A60333CF8FEF0E94610590E0909341
:100950006100809360002ACF1F920F920FB60F9212
:1009600011242F933F934F935F936F937F938F93B4
:100970009F93AF93BF93EF93FF93809163008F5F3B
:1009800080936300809163008A3008F45DC0109208
:1009900063000E94A500682F70E080E090E00E9454
:1009A0008F0620E030E040E85EE30E94F3060E94FC
:1009B0005C06DC01CB01909365008093640020917C
:1009C00060003091610080916400909165002F5F1C
:1009D0003F4F8217930744F084E462E00E94A20331
:1009E00081E08093620030C020916000309161000E
:1009F000809164009091650021503040281739079C
:100A00003CF084E462E00E94A603109262001CC0E5
:100A100020916000309161008091640090916500A8
:100A20002817390789F480916200813029F484E421
:100A300062E00E94A20308C080916200882321F432
:100A400084E462E00E94A603FF91EF91BF91AF9111
:100A50009F918F917F916F915F914F913F912F91D6
:100A60000F900FBE0F901F90189582E464E041E054
:100A70000E94AE0082E465E041E00E94AE0082E4A4
:100A800067E041E00E94AE006C9A689A6E9A82E438
:100A900064E041E00E943F0108956E9A82E466E0BE
:100AA00041E00E94AE000895CF93C82F82E464E035
:100AB00040E00E943F01CFB9779BFECF8FB1CF912D
:100AC00008958FB9779BFECF8FB10895CF93DF93B1
:100AD000EC018881882379F021960E9461058FEFCF
:100AE00092E5A7E081509040A040E1F700C00000EF
:100AF0008991882391F7DF91CF910895813059F042
:100B0000813028F0823059F08330A1F40DC083B7D2
:100B10008F7B83BF0FC083B7806483BF0BC083B755
:100B2000886083BF4CBF06C083B7886083BF83B72C
:100B3000806483BF60347105A1F06134710524F4D1
:100B400068307105F9F409C081E06030780781F000
:100B500084E060307807B1F40FC083B7826083BF50
:100B600011C083B7826083BF83B7816083BF0AC02F
:100B700083B7846083BF06C083B7846083BF83B7B5
:100B8000816083BF789489B7826089BF089583B7F5
:100B90008E7F83BF83B78D7F83BF83B78B7F83BFF8
:100BA0000895BB9A93B7986093BF93B7906493BF2F
:100BB0008CBF60347105A1F06134710524F4683094
:100BC0007105F9F409C081E06030780781F084E0B4
:100BD00060307807B1F40FC083B7826083BF11C063
:100BE00083B7826083BF83B7816083BF0AC083B746
:100BF000846083BF06C083B7846083BF83B781608E
:100C000083BF442319F0413059F407C083B7806192
:100C100083BF83B7806283BF089583B7806283BF39
:100C20000895BB9A93B7906493BF8CBF60347105ED
:100C3000A1F06134710524F468307105F9F409C03C
:100C400081E06030780781F084E060307807B1F4AB
:100C50000FC083B7826083BF11C083B7826083BF38
:100C600083B7816083BF0AC083B7846083BF06C037
:100C700083B7846083BF83B7816083BF442319F047
:100C8000413059F407C083B7806183BF83B7806266
:100C900083BF089583B7806283BF089582B588605B
:100CA00082BD85B5846085BD85B5816085BD78943C
:100CB00089B7806489BF089504D06894B1118DC04C
:100CC000089570D088F09F5790F0B92F9927B751A9
:100CD000A0F0D1F0660F771F881F991F1AF0BA9500
:100CE000C9F712C0B13081F077D0B1E0089574C077
:100CF000672F782F8827B85F39F0B93FCCF38695F6
:100D000077956795B395D9F73EF490958095709552
:100D100061957F4F8F4F9F4F0895E89409C097FBCF
:100D20003EF490958095709561957F4F8F4F9F4FC2
:100D30009923A9F0F92F96E9BB279395F695879506
:100D400077956795B795F111F8CFFAF4BB0F11F4C9
:100D500060FF1BC06F5F7F4F8F4F9F4F16C0882370
:100D600011F096E911C0772321F09EE8872F762FA6
:100D700005C0662371F096E8862F70E060E02AF0E7
:100D80009A95660F771F881FDAF7880F96958795D3
:100D900097F9089557FD9058440F551F59F05F3F3C
:100DA00071F04795880F97FB991F61F09F3F79F08D
:100DB00087950895121613061406551FF2CF46950F
:100DC000F1DF08C0161617061806991FF1CF869591
:100DD0007105610508940895E894BB276627772775
:100DE000CB0197F908950BD078C069D028F06ED068
:100DF00018F0952309F05AC05FC01124EECFCADF66
:100E0000A0F3959FD1F3950F50E0551F629FF0011D
:100E1000729FBB27F00DB11D639FAA27F00DB11D76
:100E2000AA1F649F6627B00DA11D661F829F2227FF
:100E3000B00DA11D621F739FB00DA11D621F839F86
:100E4000A00D611D221F749F3327A00D611D231F5C
:100E5000849F600D211D822F762F6A2F11249F57AA
:100E600050408AF0E1F088234AF0EE0FFF1FBB1FCD
:100E7000661F771F881F91505040A9F79E3F51056C
:100E800070F014C0AACF5F3FECF3983EDCF3869578
:100E900077956795B795F795E7959F5FC1F7FE2B17
:100EA000880F911D9695879597F9089597F99F67F3
:100EB00080E870E060E008959FEF80EC08950024E2
:100EC0000A941616170618060906089500240A94AF
:100ED00012161306140605060895092E0394000C35
:100EE00011F4882352F0BB0F40F4BF2B11F460FFC4
:100EF00004C06F5F7F4F8F4F9F4F0895F894FFCFCF
:020F00001800D7
:00000001FF
